:1000000010C015C014C013C012C011C010C00FC062
:100010000EC00DC00CC00BC00AC009C008C007C08C
:1000200006C011241FBECFEDCDBF46D15BC3E8CFC4
:1000300081E087B9369A3699FECF24B135B1C9012E
:10004000089517B8369A3699FECF24B135B1C90153
:10005000089587FD02C0880F0895880F8160089574
:1000600080FD02C0869508958695806808952F9238
:100070003F924F925F926F927F928F929F92AF9238
:10008000BF92CF92DF92EF92FF920F931F93DF9375
:10009000CF93CDB7DEB7C450CDBF80E090E0F7D2AC
:1000A000833009F43FC08430C0F5813021F18230C3
:1000B00009F0FFCF81E087B9369A3699FECF04B1B7
:1000C00015B185E090E0EBD27C01E00EF11EF694D4
:1000D000E79489E090E0B701F3D2E016F106C8F4A6
:1000E000B8016E197F0981E090E0DCD280E090E0F9
:1000F00063E0D8D2DECF87B9369A3699FECF64B1A5
:1001000075B185E090E0DCD280E090E062E0CAD298
:10011000D0CFB701601B710BE6CF843089F08530FA
:1001200099F1C7CF17B8369A3699FECF64B175B139
:1001300087E090E0C5D280E090E064E0B3D2B9CF30
:1001400017B8369A3699FECF04B115B187E090E022
:10015000A6D27C01E00EF11EF694E7948BE090E0CD
:10016000B701AED2E016F10688F5B8016E197F0925
:100170006115710511F06F5F7F4F82E090E092D2C0
:1001800080E090E065E08ED281E090E080D2282F80
:1001900030E03A83298382E090E079D2282E33241C
:1001A00049815A8141155105A9F42114310491F472
:1001B00081E087B9369A3699FECF64B075B017B82A
:1001C000369A3699FECF84B095B00CC0B701601B4B
:1001D000710BCECF89E090E062D23C018BE090E0E1
:1001E0005ED24C019C828B82840173016301AA243C
:1001F00020E030E0BB24B394412C81E5582EB7B801
:10020000369A3699FECF84B195B1E816F90608F40E
:100210007C018C159D0508F46C0117B8369A369947
:10022000FECF84B195B1EB81FC81E817F90710F49A
:100230009C838B838017910708F48C012F5F3F4FBD
:10024000FFE0213A3F07D8F24A2D4C33C0F680E058
:1002500090E060E027D2A394C70186199709B30103
:100260006C197D098617970708F4BC0189819A816A
:10027000681B790BC201F7D1009711F06F5F7F4FB8
:1002800083E090E00FD28B819C8188199909B40199
:10029000601B710B8617970708F4BC01621973097C
:1002A000C201E1D1009711F06F5F7F4F84E090E0D1
:1002B000F9D120E030E0A3CF2F923F924F925F928E
:1002C0006F927F928F929F92AF92BF92CF92DF9266
:1002D000EF92FF920F931F93DF93CF93CDB7DEB7CB
:1002E000C451CDBF83E090E0D2D1C82E84E090E02D
:1002F000CED1B82E81E090E0CAD1282E82E090E0E5
:10030000C6D1482E80EC8ABB83E087BB8CE28BBBD6
:1003100084E088BB80B18E6080B983E294EF01975E
:10032000F1F700C00000222009F020C1DD24D394A1
:10033000442009F4DD2493E091B981E087B996B9AE
:10034000379A87B9369A3699FECF84B195B181E054
:1003500087B9369A3699FECF64B075B0DD2021F0AA
:1003600089E090E09CD13C0117B8369A3699FECFCF
:1003700084B095B0DD2021F08BE090E090D14C016D
:1003800086B382FF4AC189B385FF42C180E090E015
:100390007ED181116CDEC3016C2D70E052D1A92F8A
:1003A000B0E0C4016B2D70E04CD1492F50E05524D2
:1003B0009A018D0193E3E92E8CECF82E3324F4019D
:1003C000E40DF51DFA83E983B401641975097C8392
:1003D0006B83CD01845590409E838D83FD01EC5A43
:1003E000FF4FF887EF83B301621973097A87698732
:1003F000C301820D931D9C878B87FA01E455F04061
:10040000FE87ED87BA016C5A7F4F788B6F873A8BE6
:10041000298B2E2DC8011F2D5C8B4B8B7C01022F4D
:1004200071E077B9369A89899A89EB89FC8936997E
:10043000FECF9A8B898BFC8BEB8B84B195B1DD2041
:10044000B1F06816790640F4EB85FC85E817F907EA
:1004500008F0D3C0821993098615970540F42985C1
:100460003A858217930708F0C8C0820D931D6C2D42
:1004700070E0E7D0292F30E0A217B30740F4C9019C
:100480008A1B9B0B8535910510F02F8138852A1723
:100490003B0740F4CD01821B930B8535910510F08D
:1004A0002D813E8117B8369A89899A89EB89FC8912
:1004B0003699FECF9A8B898BFC8BEB8B84B195B1EF
:1004C000DD20B1F08816990640F449815A81481719
:1004D000590708F094C0841995098815990540F4C6
:1004E0006B817C818617970708F089C0840D951D64
:1004F0006B2D70E0A6D0892F90E0EB89FC89E8177E
:10050000F90740F4AC014E1B5F0B4535510510F067
:100510008F8598894B895C898417950738F4481B27
:10052000590B4535510510F08D859E85A9014E1951
:100530005F09BC01E989FA896E1B7F0BCA9903C068
:10054000509541955F4FCB9940C0709561957F4F15
:10055000EB89FC894115510561F46115710589F438
:10056000FC8BEB8B9A8B898B79015ACFDD24D3944A
:10057000E2CE57FD31C010FF2BC0169510684150D8
:1005800050401616170684F500FF24C00695006833
:1005900061507040E8B20F2EF3E0FF2EF02DF122F3
:1005A0000F2EFCEFAF2EF02DEA20FE28F8BAEBB2AA
:1005B0000F2EF0ECFF2EF02DF0220F2EFFE3AF2ECA
:1005C000F02DEA20FE28FBBAC5CFEB89FC89C2CF0B
:1005D0001695D5CF0695DCCF17FD14C0110F4F5FD0
:1005E0005F4F1616170684F26115710599F207FD23
:1005F0000CC0000F6F5F7F4FCDCF9D0153CF8B8914
:100600009C8994CF110F1160EACF000F0160F2CFE7
:1006100080E090E061E046D0FFCF80E090E065E0D0
:1006200041D081E090E060E03DD082E090E060E089
:1006300039D0FFCF9C01862F90E0B90102D0892FDD
:1006400008955527002480FF02C0060E571F660F2D
:10065000771F6115710521F096958795009799F799
:10066000952F802D0895AA1BBB1B51E107C0AA1F1F
:10067000BB1FA617B70710F0A61BB70B881F991F43
:100680005A95A9F780959095BC01CD010895E199FF
:10069000FECF1FBA8EBBE09A99278DB30895A8E1CB
:1006A00042E013C0262FE199FECF1CBA1FBA8EBBC1
:1006B0002DBB0FB6F894E29AE19A0FBE0196089509
:1006C000F1DF272FF0CFA82F862FE82FE199FECF5B
:1006D0001FBA05C0EEBBE09AE3950DB20D924150F2
:0806E000C8F70895F894FFCF5C
:00000001FF
